:020000040800F2
:100000008006002081010008C3090008C10900081A
:1000100000000000000000000000000000000000E0
:10002000000000000000000000000000C7090008F8
:100030000000000000000000C5090008C909000810
:100040009301000893010008930100089301000840
:100050009301000893010008930100089301000830
:100060009301000893010008930100089301000820
:100070009301000893010008930100089301000810
:100080009301000893010008930100089301000800
:1000900093010008930100089301000893010008F0
:1000A00093010008930100089301000893010008E0
:1000B00093010008D5090008930100089301000886
:1000C00000F002F800F04CF812A030C808382418EC
:1000D0002D18AC4201D100F043F80FCCA246AB463C
:1000E0000CA730CF2D1B083F3F197C427F1E544484
:1000F0002D090426F441641EAC4201D300F030F80F
:100100000126334200D0FB1A3343984754465D46DC
:10011000DFE70000D81E0000F81E0000103A02D3EE
:1001200078C878C1FAD8520701D330C830C101D598
:1001300004680C6070470000704700000023002432
:1001400000250026103A01D378C1FBD8520700D30E
:1001500030C100D50B6070471FB51FBD10B510BD75
:1001600000F04DF81146FFF7F7FF00F03FFC00F0FC
:1001700065F803B4FFF7F2FF03BC00F06BF8000072
:100180000748804707480047FEE7FEE7FEE7FEE72F
:10019000FEE7FEE704480549054A064B70470000A4
:1001A000D1090008C100000880000020800600205E
:1001B000800200208002002001E004C0091F042901
:1001C000FBD28B0701D50280801CC90700D00270CA
:1001D000704700290BD0C30702D00270401C491E93
:1001E000022904D3830702D50280801C891EE3E71D
:1001F0000022EEE70022DFE7704770477047754640
:1002000000F024F8AE46050069465346C008C00019
:10021000854618B020B5FFF7BDFF60BCB646002686
:100220000027C0C5C0C5C0C5C0C5C0C5C0C5C0C504
:10023000C0C5403D490849008D46704710B5044689
:10024000C046C0462046FFF794FF10BD00487047E7
:100250001000002001491820ABBEFEE72600020076
:1002600070470000B0B5044600F00CF80546601C6D
:1002700002D021480078041900F004F8401BA04285
:10028000FAD3B0BD054800687047C0461A480078E8
:1002900002490A68101808607047C04678000020BC
:1002A00080B58548016810220A430260032000F0EF
:1002B00005F800F023F8002080BDC04670B5044664
:1002C0007D20C0000C4E317801F045FD0146844888
:1002D000006801F040FD00F059FB0125032C08D80F
:1002E000002806D10025E84321462A4600F01CF8E4
:1002F0007460284670BDC0460000002082B00948E6
:1003000001680122114301600168114001910199C6
:10031000110742680A434260406808400090009814
:1003200002B0704718100240002805D4032203468B
:1003300093430A4A9A1803E00C220240064BD21853
:100340008007C00E8901C9B28140FF238340106835
:10035000984308431060704714ED00E000E400E0AB
:10036000F0B581B0002846D00446534A13680120F6
:1003700003408B4208D213680126B3430B4313603A
:10038000126832408A4237D1009121688A074B4B6C
:1003900010D54A0706D5072212021B681343474AA5
:1003A0001360464B1A68F0239A43A3681343434AE9
:1003B0001360424BC90722D13F49086801263040EB
:1003C000009A904205D90868B04308600868C007E1
:1003D00012D12078400706D5072000021968814312
:1003E000E068084318601A681007810F3548022931
:1003F00012D2044650E00126304601B0F0BD6168DB
:1004000003290DD01A1F02290FD0012912D1126819
:1004100092030646F0D511E0032926D12A4C3BE091
:100420001A6B92030646E7D508E012689201064669
:10043000E2D503E0126892070646DDD51868032668
:10044000B04308431860FFF71DFF07461C4D1B4BC8
:1004500018680C210140606880008142ACD0FFF731
:1004600011FFC01BA842F2D9C6E70321CB031349F1
:10047000896A0F240C401549095D94021A40240F23
:10048000134D2C5D9A4202D033049A4200E00E488C
:1004900001F061FC4443094B18680006000F0D4948
:1004A000085CC4400E4804600320FFF707FF0026E5
:1004B000304601B0F0BDC0460020024004100240AA
:1004C0008813000000127A00006CDC026C1F000828
:1004D0005C1F00084C1F0008014800687047C046B8
:1004E00008000020F0B587B004460120002C00D1A0
:1004F00045E204902078C007F94E05940CD071684D
:100500000C200140042900D090E03068800303D51E
:100510006068002800D120E12078800721D570682C
:100520000007800F0ED070680C210140082900D010
:100530009DE00320C003716801400120C003814297
:1005400000D094E030688007059C03D5E06801285E
:1005500000D002E13068F82188432169C9000143D5
:100560003160059C2078000724D42078400737D4D8
:100570002078C00600D4D3E005984069411D00D121
:10058000C2E0012800D030E1706B042101437163A7
:10059000706B012101437163FFF774FE0546706BB8
:1005A000800700D5B4E0FFF76DFE411B0320022950
:1005B000F5D9E4E1706AE169002900D181E0012107
:1005C00008437062FFF75EFE0546706A8007CCD470
:1005D000FFF758FE401B0228F7D9032007B0F0BDF3
:1005E000012003900107F0690840029006D1F069EC
:1005F0000843F061F0690840069006980191E14FC8
:100600003868C0054AD4039804023868204338602B
:10061000FFF738FE0546386820423FD1FFF732FE2B
:10062000401B6428F7D9032007B0F0BD7168014072
:10063000082908D10320C00371680140012000048B
:10064000814200D161E7616801204704002900D19F
:1006500017E1052900D12BE1012900D12CE101048A
:1006600032688A43326081043068884327E1306809
:10067000059CE168002936D0012108433060FFF76E
:1006800001FE05463068800700D563E7FFF7FAFDF5
:10069000401B0228F6D9032007B0F0BD05988068FA
:1006A000002800D1B6E0052800D1C9E0012800D11A
:1006B000CAE0306A039988433062306A0421884373
:1006C000C5E0012188437062FFF7DCFD0546706AD2
:1006D000800700D449E7FFF7D5FD401B0228F6D973
:1006E000032007B0F0BD012188433060FFF7CAFD49
:1006F00005463068800700D433E7FFF7C3FD411B90
:1007000003200229F5D93AE1706B04218843706314
:10071000706BF821884305998969C90001437163A9
:100720000598007880060BD571680C2001400C29D3
:1007300039D1706B800303D50598006A01280CD16C
:100740000598446A002C00D1E1E070680C2101405A
:10075000082905D1012C00D0C4E0049807B0F0BDF1
:100760000120020631680492914331604706FFF789
:1007700089FD0546022C0BD1049C3068384200D11B
:10078000DEE0FFF77FFD411B03200229F5D9F6E0EB
:100790003068384200D1BAE0FFF774FD411B0320F6
:1007A0000229F5D9EBE071680140082905D1032041
:1007B000C003716801408142BBD0706B0599096A22
:1007C000002900D1A9E001210A04104370634C0400
:1007D000FFF758FD0546706B2042B1D1FFF752FD7F
:1007E000411B03200229F6D9C9E0706B04210143A3
:1007F0007163706B012188437063FFF743FD054609
:10080000706B80078CD5FFF73DFD411B032002294B
:10081000F6D9B4E0306A039988433062306A042123
:1008200088433062584CFFF72DFD0546306A80073B
:100830001DD5FFF727FD411B0320A142F6D99EE0FD
:10084000306A042101433162306A039908433062FF
:100850004D4CFFF717FD0546306A800707D4FFF7B8
:1008600011FD401BA042F7D9032007B0F0BD02984C
:100870000028059C00D07BE6F06901998843F0616F
:1008800076E6010432688A4332608004316881432D
:100890003160FFF7F7FC0546059C3068384200D10F
:1008A0003AE6FFF7EFFC411B03206429F5D966E027
:1008B000810432680A4332600104306808433060C2
:1008C000FFF7E0FC05463068384200D024E6FFF729
:1008D000D9FC401B6428F6D9032007B0F0BDC04600
:1008E000001002400320C20370680240F16A059CB8
:1008F000A36A9A42049D0DD10F221140236B9942A5
:1009000008D191040840E16A8842284637D1002086
:1009100007B0F0BD284607B0F0BD01210A0490439E
:1009200070634C04FFF7AEFC0546706B204200D1AB
:1009300006E7FFF7A7FC411B03200229F5D91EE0BB
:10094000F06A0F218843059A116B0143F1627B2005
:10095000C00371688143D06A0843916A01437160A2
:10096000306820433060FFF78DFC04463068384221
:10097000CDD1FFF787FC011B03200229F6D907B070
:10098000F0BDC0460070004088130000401E010EFC
:1009900001D0012070470749074A506007480368A3
:1009A0000B4003218907591801600020906007213E
:1009B00011607047FFFFFF0010E000E020ED00E055
:1009C000FEE7FEE77047704780B5FFF75FFC80BD2C
:1009D0007047000003480121416003490988017004
:1009E0007047C046700000202448004000B5A3B006
:1009F000FFF756FC16AD281D3021FFF7FBFB002644
:100A00001F9610201A900124199402271697284641
:100A1000FFF768FD002803D0EFF3108072B6FEE701
:100A200003971596149613960725129512A831462A
:100A3000FFF796FC002803D0EFF3108072B6FEE7B4
:100A40000195A004C2490A6802430A60E2040B68E7
:100A500013430B608A6802438A60BE480268BE493D
:100A60000A40026005225205036813430360032213
:100A70000292920243689343436082680A40826014
:100A8000C2680A40C260416AD64A114041621121DF
:100A90008902426A0A434262D34B184614380168FD
:100AA00006605521090302680A430260184610389F
:100AB0000168066018460C38016806601846083858
:100AC00001680660C94F00963E461C3EFFF704FDD4
:100AD00031680C220A433260316820220A921143A5
:100AE00031603D46103D296800992960E1214902A5
:100AF00001F053F92968014329606007BC49086087
:100B0000BC480168B74A1140E203891801603068A7
:100B1000204330603868000608D43868000605D4E1
:100B20003868000602D438680006F3D541200990E1
:100B3000B8813868000608D43868000605D43868DB
:100B4000000602D438680006F3D577201090B881EB
:100B500000990A9A3868000608D43868000605D457
:100B60003868000602D438680006F3D561200F907B
:100B7000B8813868000608D43868000605D438689B
:100B8000000602D438680006F3D56923BB813868B3
:100B9000000608D43868000605D43868000602D478
:100BA00038680006F3D57424BC813868000608D480
:100BB0003868000605D43868000602D43868000694
:100BC000F3D5BB813868000608D43868000605D420
:100BD0003868000602D438680006F3D56E25BD815A
:100BE0003868000608D43868000605D4386800065E
:100BF00002D438680006F3D567200B90B8813868B6
:100C0000000608D43868000605D43868000602D407
:100C100038680006F3D5BA813868000608D4386809
:100C2000000605D43868000602D438680006F3D5FB
:100C3000BB813868000608D43868000605D43868D7
:100C4000000602D438680006F3D5BD813868000676
:100C500008D43868000605D43868000602D438681D
:100C60000006F3D570200590B8813868000608D4D6
:100C70003868000605D43868000602D438680006D3
:100C8000F3D575200C90B8813868000608D4386810
:100C9000000605D43868000602D438680006F3D58B
:100CA000BC813868000608D43868000605D4386866
:100CB000000602D438680006F3D53A200490B881C3
:100CC0003868000608D43868000605D4386800067D
:100CD00002D438680006F3D5BA813868000608D413
:100CE0003868000605D43868000602D43868000663
:100CF000F3D50695079408930A201190B8813868B7
:100D0000000608D43868000605D43868000602D406
:100D100038680006F3D50D200E90B881C8430D90B9
:100D2000354E01E0204669E0044601252846FFF7DC
:100D300099FA70680128F8D131783039422900D900
:100D400096E0062005A24900515A49008F44C0464A
:100D50001410024000040048FFFF0FFF5900DF009D
:100D6000160190009000900090009000900090007C
:100D700090009000900090009000900090009000F3
:100D800090009000900090009000900090009000E3
:100D900090009000900090009000900090009000D3
:100DA00090009000900090009000900090009000C3
:100DB00090009000900090009000900090009000B3
:100DC0004E019000900090009000DD009000900097
:100DD00090009000900090009000500190009000D2
:100DE0005600C046FF00FFFF140800481C480040A2
:100DF00000E100E01CE400E07000002000217160D0
:100E000092E7052C00DDF9E000204521794D05E051
:100E1000B981C01C295C332800D183E73A681206E7
:100E200008D43A68120605D43A68120602D43A6821
:100E30001206F3D5B98141194A783B681B0608D4DC
:100E40003B681B0605D43B681B0602D43B681B06A7
:100E5000F3D5BA8189783A681206D9D43A6812066D
:100E6000D6D43A681206D3D43A681206F3D5CFE73F
:100E700000204521039B029C03E0B981001D5E49CF
:100E8000095C3A68120608D43A68120605D43A6832
:100E9000120602D43A681206F3D5B98101462943F5
:100EA000554A515C3A68120608D43A68120605D4CD
:100EB0003A68120602D43A681206F3D5B98101469F
:100EC00019434D4A515C3A68120608D43A68120632
:100ED00005D43A68120602D43A681206F3D5B981ED
:100EE000014621433B2901D100F032FF424A515CC7
:100EF0003A681206C1D43A681206BED43A6812069D
:100F0000BBD43A681206F3D5B7E7092076E7052C7B
:100F100000DDC0E200204521364D05E0B981C01C4E
:100F2000295C332800D1FDE63A68120608D43A68F5
:100F3000120605D43A68120602D43A681206F3D5AE
:100F4000B98141194A783B681B0608D43B681B06E7
:100F500005D43B681B0602D43B681B06F3D5BA8157
:100F600089783A681206D9D43A681206D6D43A6813
:100F70001206D3D43A681206F3D5CFE7052C01DD6B
:100F800000F0C5FC452100981A4D05E0B981C01C50
:100F9000295C332800D1C5E63A68120608D43A68BD
:100FA000120605D43A68120602D43A681206F3D53E
:100FB000B98141194A783B681B0608D43B681B0677
:100FC00005D43B681B0602D43B681B06F3D5BA81E7
:100FD00089783A681206D9D43A681206D6D43A68A3
:100FE0001206D3D43A681206F3D5CFE7019805E785
:100FF000082003E77C1F0008B01F0008A540034934
:101000000868A84308600A9A089B01E01408004891
:101010003868000608D43868000605D43868000629
:1010200002D438680006F3D55020B881069D386890
:10103000000608D43868000605D43868000602D4D3
:1010400038680006F3D5BB813868000608D43868D4
:10105000000605D43868000602D438680006F3D5C7
:10106000BD813868000608D43868000605D43868A1
:10107000000602D438680006F3D5BA813868000645
:1010800008D43868000605D43868000602D43868E9
:101090000006F3D53034E0B2B8813868000608D4D1
:1010A0003868000605D43868000602D4386800069F
:1010B000F3D5BA81079C3868000608D43868000662
:1010C00005D43868000602D438680006F3D51098B5
:1010D000B8813868000608D43868000605D4386836
:1010E000000602D438680006F3D50F98B881386836
:1010F000000608D43868000605D43868000602D413
:1011000038680006F3D57320B8813868000608D423
:101110003868000605D43868000602D4386800062E
:10112000F3D5BA813868000608D43868000605D4BB
:101130003868000602D438680006F3D5BC813868E8
:10114000000608D43868000605D43868000602D4C2
:1011500038680006F3D50C98B8813868000608D4C2
:101160003868000605D43868000602D438680006DE
:10117000F3D57220B8813868000608D438680006B4
:1011800005D43868000602D438680006F3D5BD815E
:101190003868000608D43868000605D438680006A8
:1011A00002D438680006F3D56520B8813868000697
:1011B00008D43868000605D43868000602D43868B8
:1011C0000006F3D56420B8813868000608D4386872
:1011D000000605D43868000602D438680006F3D546
:1011E000BA813868000608D43868000605D4386823
:1011F000000602D438680006F3D56F20B88138683D
:10120000000608D43868000605D43868000602D401
:1012100038680006F3D56620B8813968090608D415
:101220003968090605D43968090602D439680906FF
:10123000F3D5B8813868000608D43868000605D4AC
:101240003868000602D438680006F3D52E20B8812D
:101250003868000608D43868000605D438680006E7
:1012600002D438680006F3D51198B88138680006B2
:1012700008D43868000605D43868000602D43868F7
:101280000006F3D50E98B8813868000608D438688F
:10129000000605D43868000602D438680006F3D585
:1012A0001198B8813868000608D43868000605D45B
:1012B0003868000602D438680006F3D50998B8816A
:1012C0003868000608D43868000605D43868000677
:1012D00002D438680006F3D51098B8813868000643
:1012E00008D43868000605D43868000602D4386887
:1012F0000006F3D50F98B8813868000608D438681E
:10130000000605D43868000602D438680006F3D514
:10131000BB813868000608D43868000605D43868F0
:10132000000602D438680006F3D5BC813868000690
:1013300008D43868000605D43868000602D4386836
:101340000006F3D5BB813868000608D4386800066B
:1013500005D43868000602D438680006F3D5BD818C
:101360003868000608D43868000605D438680006D6
:1013700002D438680006F3D50B98B88138680006A7
:1013800008D43868000605D43868000602D43868E6
:101390000006F3D5BA813868000608D4386800061C
:1013A00005D43868000602D438680006F3D5BB813E
:1013B0003868000608D43868000605D43868000686
:1013C00002D438680006F3D5BD813868000608D419
:1013D0003868000605D43868000602D4386800066C
:1013E000F3D50598B8813868000608D43868000637
:1013F00005D43868000602D438680006F3D50C9886
:10140000B8813868000608D43868000605D4386802
:10141000000602D438680006F3D5BC81386800069F
:1014200008D43868000605D43868000602D4386845
:101430000006F3D50498B8813868000608D43868E7
:10144000000605D43868000602D438680006F3D5D3
:10145000BA813868000608D43868000605D43868B0
:10146000000602D438680006F3D51198B8813868B0
:10147000000601D500F06AFC3868000601D500F0CE
:1014800065FC3868000601D500F060FC386800068D
:10149000EDD500F05BFCA5400249086828430860D0
:1014A00002E0C046140800483868000608D43868CE
:1014B000000605D43868000602D438680006F3D563
:1014C0005020B8810A99089A069D3868000608D409
:1014D0003868000605D43868000602D4386800066B
:1014E000F3D5BA813868000608D43868000605D4F8
:1014F0003868000602D438680006F3D5BD81386824
:10150000000608D43868000605D43868000602D4FE
:1015100038680006F3D5B9813868000608D4386801
:10152000000605D43868000602D438680006F3D5F2
:101530003034E0B2B8813868000608D43868000654
:1015400005D43868000602D438680006F3D5B9819E
:10155000079B3868000608D43868000605D4386848
:10156000000602D438680006F3D51098B8813868B0
:10157000000608D43868000605D43868000602D48E
:1015800038680006F3D50F98B8813868000608D48B
:101590003868000605D43868000602D438680006AA
:1015A000F3D57320B8813868000608D4386800067F
:1015B00005D43868000602D438680006F3D5B9812E
:1015C0003868000608D43868000605D43868000674
:1015D00002D438680006F3D5BB813868000608D409
:1015E0003868000605D43868000602D4386800065A
:1015F000F3D50C98B8813868000608D4386800061E
:1016000005D43868000602D438680006F3D5722085
:10161000B8813868000608D43868000605D43868F0
:10162000000602D438680006F3D5BD81386800068C
:1016300008D43868000605D43868000602D4386833
:101640000006F3D56520B8813868000608D43868EC
:10165000000605D43868000602D438680006F3D5C1
:101660006420B8813868000608D43868000605D4BC
:101670003868000602D438680006F3D5B9813868A6
:10168000000608D43868000605D43868000602D47D
:1016900038680006F3D56F20B8813868000608D492
:1016A0003868000605D43868000602D43868000699
:1016B000F3D5BD813868000608D43868000605D423
:1016C0003868000602D438680006F3D52E20B881A9
:1016D0003868000608D43868000605D43868000663
:1016E00002D438680006F3D51198B881386800062E
:1016F00008D43868000605D43868000602D4386873
:101700000006F3D50E98B8813868000608D438680A
:10171000000605D43868000602D438680006F3D500
:101720001198B8813868000608D43868000605D4D6
:101730003868000602D438680006F3D50998B881E5
:101740003868000608D43868000605D438680006F2
:1017500002D438680006F3D51098B88138680006BE
:1017600008D43868000605D43868000602D4386802
:101770000006F3D50F98B8813868000608D4386899
:10178000000605D43868000602D438680006F3D590
:10179000BA813868000608D43868000605D438686D
:1017A000000602D438680006F3D5BB81386800060D
:1017B00008D43868000605D43868000602D43868B2
:1017C0000006F3D5BA813868000608D438680006E8
:1017D00005D43868000602D438680006F3D5BD8108
:1017E0003868000608D43868000605D43868000652
:1017F00002D438680006F3D50B98B8813868000623
:1018000008D43868000605D43868000602D4386861
:101810000006F3D5B9813868000608D43868000698
:1018200005D43868000602D438680006F3D5BA81BA
:101830003868000608D43868000605D43868000601
:1018400002D438680006F3D5BD813868000608D494
:101850003868000605D43868000602D438680006E7
:10186000F3D50598B8813868000608D438680006B2
:1018700005D43868000602D438680006F3D50C9801
:10188000B8813868000608D43868000605D438687E
:10189000000602D438680006F3D5BB81386800061C
:1018A00008D43868000605D43868000602D43868C1
:1018B0000006F3D50498B8813868000608D4386863
:1018C000000605D43868000602D438680006F3D54F
:1018D000B9813868000608D43868000605D438682D
:1018E000000602D438680006F3D51198B88138682C
:1018F000000600D52AE23868000600D526E23868DE
:10190000000600D522E238680006F0D51EE2A540A8
:10191000024908686840086002E0C04614080048B0
:101920003868000608D43868000605D43868000610
:1019300002D438680006F3D55020B8810A99089A75
:10194000069D3868000608D43868000605D4386853
:10195000000602D438680006F3D5BA81386800065C
:1019600008D43868000605D43868000602D4386800
:101970000006F3D5BD813868000608D43868000633
:1019800005D43868000602D438680006F3D5B9815A
:101990003868000608D43868000605D438680006A0
:1019A00002D438680006F3D53034E0B2B881386824
:1019B000000608D43868000605D43868000602D44A
:1019C00038680006F3D5B981079B3868000608D44B
:1019D0003868000605D43868000602D43868000666
:1019E000F3D51098B8813868000608D43868000626
:1019F00005D43868000602D438680006F3D50F987D
:101A0000B8813868000608D43868000605D43868FC
:101A1000000602D438680006F3D57320B881386810
:101A2000000608D43868000605D43868000602D4D9
:101A300038680006F3D5B9813868000608D43868DC
:101A4000000605D43868000602D438680006F3D5CD
:101A5000BB813868000608D43868000605D43868A9
:101A6000000602D438680006F3D56F20B8813868C4
:101A7000000608D43868000605D43868000602D489
:101A800038680006F3D50B98B8813868000608D48A
:101A90003868000605D43868000602D438680006A5
:101AA000F3D50B98B8813868000608D4386800066A
:101AB00005D43868000602D438680006F3D56C20D7
:101AC000B8813868000608D43868000605D438683C
:101AD000000602D438680006F3D56520B88138685E
:101AE000000608D43868000605D43868000602D419
:101AF00038680006F3D56420B8813868000608D439
:101B00003868000605D43868000602D43868000634
:101B1000F3D52E20B8813868000608D4386800064E
:101B200005D43868000602D438680006F3D5119849
:101B3000B8813868000608D43868000605D43868CB
:101B4000000602D438680006F3D50E98B8813868CC
:101B5000000608D43868000605D43868000602D4A8
:101B600038680006F3D51198B8813868000608D4A3
:101B70003868000605D43868000602D438680006C4
:101B8000F3D50998B8813868000608D4386800068B
:101B900005D43868000602D438680006F3D51098DA
:101BA000B8813868000608D43868000605D438685B
:101BB000000602D438680006F3D50F98B88138685B
:101BC000000608D43868000605D43868000602D438
:101BD00038680006F3D5BA813868000608D438683A
:101BE000000605D43868000602D438680006F3D52C
:101BF000BB813868000608D43868000605D4386808
:101C0000000602D438680006F3D5BA8138680006A9
:101C100008D43868000605D43868000602D438684D
:101C20000006F3D5BD813868000608D43868000680
:101C300005D43868000602D438680006F3D50B983E
:101C4000B8813868000608D43868000605D43868BA
:101C5000000602D438680006F3D5B981386800065A
:101C600008D43868000605D43868000602D43868FD
:101C70000006F3D5BA813868000608D43868000633
:101C800005D43868000602D438680006F3D5BD8153
:101C90003868000608D43868000605D4386800069D
:101CA00002D438680006F3D50598B8813868000674
:101CB00008D43868000605D43868000602D43868AD
:101CC0000006F3D50C98B8813868000608D4386847
:101CD000000605D43868000602D438680006F3D53B
:101CE000BB813868000608D43868000605D4386817
:101CF000000602D438680006F3D50498B881386825
:101D0000000608D43868000605D43868000602D4F6
:101D100038680006F3D5B9813868000608D43868F9
:101D2000000605D43868000602D438680006F3D5EA
:101D30001198B8813868000608D43868000605D4C0
:101D40003868000602D438680006F3D50E98B881CA
:101D50000D98FFF753F843088B421AD3002203096A
:101D60008B4279D3030A8B425ED3030B8B4242D35F
:101D7000030C8B4227D30902FF2212BA030C8B42B9
:101D800002D31212090203D0030B8B4233D31AE0A1
:101D9000D3E0411A8041401C704703460B4371D485
:101DA00043088B42F5D3002203098B4254D3030A24
:101DB0008B4239D3030B8B421DD3030C8B4202D3CE
:101DC00094466EE0090AC30B8B4201D3CB03C01AC1
:101DD0005241830B8B4201D38B03C01A5241430BF8
:101DE0008B4201D34B03C01A5241030B8B4201D3E8
:101DF0000B03C01A5241C30A8B4201D3CB02C01A53
:101E00005241830A8B4201D38B02C01A5241430ACA
:101E10008B4201D34B02C01A5241030A8B4201D3B9
:101E20000B02C01A5241CDD2C3098B4201D3CB0160
:101E3000C01A524183098B4201D38B01C01A52410F
:101E400043098B4201D34B01C01A524103098B4213
:101E500001D30B01C01A5241C3088B4201D3CB00FE
:101E6000C01A524183088B4201D38B00C01A5241E1
:101E700043088B4201D34B00C01A5241411A5241D0
:101E800010007047CA0F00D04942031000D34042EF
:101E9000534000229C4603098B422DD3030A8B42F8
:101EA00012D38901FC2212BA030A8B420CD3890196
:101EB00092118B4208D3890192118B4204D389017C
:101EC00037D0921100E08909C3098B4201D3CB01BD
:101ED000C01A524183098B4201D38B01C01A52416F
:101EE00043098B4201D34B01C01A524103098B4273
:101EF00001D30B01C01A5241C3088B4201D3CB005E
:101F0000C01A524183088B4201D38B00C01A524140
:101F1000D9D243088B4201D34B00C01A5241411A17
:101F200000D201465241104663465B1000D3404246
:101F3000704763465B1000D3404201B50021004268
:101F400001D0C9430846C046C04602BD000000009B
:101F5000000000000102030406070809020304054B
:101F6000060708090A0B0C0D0E0F101001020304DE
:101F700005060708090A0B0C0D0E0F104572726F4B
:101F8000723A20706C6561736520666972737420A3
:101F900063686F6F736520612070696E2028722CF2
:101FA00020622C206F2C206F722067292E0A0D00D2
:101FB0004572726F723A20506C6561736520656E70
:101FC00074657220722C20622C206F2C206F72207E
:101FD0006720666F6C6C6F77656420627920302CA7
:101FE00020312C206F7220322E0A0D0010200008A4
:101FF00000000020100000001C0100082020000844
:1020000010000020700600003C01000800000000E5
:10201000010000000400000000127A00000000002F
:04000005080000C12E
:00000001FF
